{
  "_format": "hh-sol-artifact-1",
  "contractName": "ChainMindNFA",
  "sourceName": "contracts/ChainMindNFA.sol",
  "abi": [
    {
      "inputs": [],
      "stateMutability": "nonpayable",
      "type": "constructor"
    },
    {
      "inputs": [
        {
          "internalType": "address",
          "name": "sender",
          "type": "address"
        },
        {
          "internalType": "uint256",
          "name": "tokenId",
          "type": "uint256"
        },
        {
          "internalType": "address",
          "name": "owner",
          "type": "address"
        }
      ],
      "name": "ERC721IncorrectOwner",
      "type": "error"
    },
    {
      "inputs": [
        {
          "internalType": "address",
          "name": "operator",
          "type": "address"
        },
        {
          "internalType": "uint256",
          "name": "tokenId",
          "type": "uint256"
        }
      ],
      "name": "ERC721InsufficientApproval",
      "type": "error"
    },
    {
      "inputs": [
        {
          "internalType": "address",
          "name": "approver",
          "type": "address"
        }
      ],
      "name": "ERC721InvalidApprover",
      "type": "error"
    },
    {
      "inputs": [
        {
          "internalType": "address",
          "name": "operator",
          "type": "address"
        }
      ],
      "name": "ERC721InvalidOperator",
      "type": "error"
    },
    {
      "inputs": [
        {
          "internalType": "address",
          "name": "owner",
          "type": "address"
        }
      ],
      "name": "ERC721InvalidOwner",
      "type": "error"
    },
    {
      "inputs": [
        {
          "internalType": "address",
          "name": "receiver",
          "type": "address"
        }
      ],
      "name": "ERC721InvalidReceiver",
      "type": "error"
    },
    {
      "inputs": [
        {
          "internalType": "address",
          "name": "sender",
          "type": "address"
        }
      ],
      "name": "ERC721InvalidSender",
      "type": "error"
    },
    {
      "inputs": [
        {
          "internalType": "uint256",
          "name": "tokenId",
          "type": "uint256"
        }
      ],
      "name": "ERC721NonexistentToken",
      "type": "error"
    },
    {
      "inputs": [
        {
          "internalType": "address",
          "name": "owner",
          "type": "address"
        }
      ],
      "name": "OwnableInvalidOwner",
      "type": "error"
    },
    {
      "inputs": [
        {
          "internalType": "address",
          "name": "account",
          "type": "address"
        }
      ],
      "name": "OwnableUnauthorizedAccount",
      "type": "error"
    },
    {
      "anonymous": false,
      "inputs": [
        {
          "indexed": true,
          "internalType": "uint256",
          "name": "tokenId",
          "type": "uint256"
        },
        {
          "indexed": false,
          "internalType": "bytes32",
          "name": "actionHash",
          "type": "bytes32"
        },
        {
          "indexed": false,
          "internalType": "uint256",
          "name": "timestamp",
          "type": "uint256"
        }
      ],
      "name": "ActionExecuted",
      "type": "event"
    },
    {
      "anonymous": false,
      "inputs": [
        {
          "indexed": true,
          "internalType": "address",
          "name": "owner",
          "type": "address"
        },
        {
          "indexed": true,
          "internalType": "address",
          "name": "approved",
          "type": "address"
        },
        {
          "indexed": true,
          "internalType": "uint256",
          "name": "tokenId",
          "type": "uint256"
        }
      ],
      "name": "Approval",
      "type": "event"
    },
    {
      "anonymous": false,
      "inputs": [
        {
          "indexed": true,
          "internalType": "address",
          "name": "owner",
          "type": "address"
        },
        {
          "indexed": true,
          "internalType": "address",
          "name": "operator",
          "type": "address"
        },
        {
          "indexed": false,
          "internalType": "bool",
          "name": "approved",
          "type": "bool"
        }
      ],
      "name": "ApprovalForAll",
      "type": "event"
    },
    {
      "anonymous": false,
      "inputs": [
        {
          "indexed": false,
          "internalType": "uint256",
          "name": "_fromTokenId",
          "type": "uint256"
        },
        {
          "indexed": false,
          "internalType": "uint256",
          "name": "_toTokenId",
          "type": "uint256"
        }
      ],
      "name": "BatchMetadataUpdate",
      "type": "event"
    },
    {
      "anonymous": false,
      "inputs": [
        {
          "indexed": true,
          "internalType": "uint256",
          "name": "tokenId",
          "type": "uint256"
        },
        {
          "indexed": false,
          "internalType": "uint256",
          "name": "amount",
          "type": "uint256"
        }
      ],
      "name": "FundsDeposited",
      "type": "event"
    },
    {
      "anonymous": false,
      "inputs": [
        {
          "indexed": true,
          "internalType": "uint256",
          "name": "tokenId",
          "type": "uint256"
        },
        {
          "indexed": false,
          "internalType": "uint256",
          "name": "amount",
          "type": "uint256"
        }
      ],
      "name": "FundsWithdrawn",
      "type": "event"
    },
    {
      "anonymous": false,
      "inputs": [
        {
          "indexed": true,
          "internalType": "uint256",
          "name": "tokenId",
          "type": "uint256"
        },
        {
          "indexed": false,
          "internalType": "bytes32",
          "name": "learningHash",
          "type": "bytes32"
        }
      ],
      "name": "LearningUpdated",
      "type": "event"
    },
    {
      "anonymous": false,
      "inputs": [
        {
          "indexed": false,
          "internalType": "uint256",
          "name": "_tokenId",
          "type": "uint256"
        }
      ],
      "name": "MetadataUpdate",
      "type": "event"
    },
    {
      "anonymous": false,
      "inputs": [
        {
          "indexed": true,
          "internalType": "address",
          "name": "previousOwner",
          "type": "address"
        },
        {
          "indexed": true,
          "internalType": "address",
          "name": "newOwner",
          "type": "address"
        }
      ],
      "name": "OwnershipTransferred",
      "type": "event"
    },
    {
      "anonymous": false,
      "inputs": [
        {
          "indexed": true,
          "internalType": "uint256",
          "name": "tokenId",
          "type": "uint256"
        },
        {
          "indexed": false,
          "internalType": "bytes32",
          "name": "newStateHash",
          "type": "bytes32"
        }
      ],
      "name": "StateUpdated",
      "type": "event"
    },
    {
      "anonymous": false,
      "inputs": [
        {
          "indexed": true,
          "internalType": "address",
          "name": "from",
          "type": "address"
        },
        {
          "indexed": true,
          "internalType": "address",
          "name": "to",
          "type": "address"
        },
        {
          "indexed": true,
          "internalType": "uint256",
          "name": "tokenId",
          "type": "uint256"
        }
      ],
      "name": "Transfer",
      "type": "event"
    },
    {
      "inputs": [
        {
          "internalType": "uint256",
          "name": "",
          "type": "uint256"
        }
      ],
      "name": "agentFunds",
      "outputs": [
        {
          "internalType": "uint256",
          "name": "",
          "type": "uint256"
        }
      ],
      "stateMutability": "view",
      "type": "function"
    },
    {
      "inputs": [
        {
          "internalType": "uint256",
          "name": "",
          "type": "uint256"
        }
      ],
      "name": "agentStates",
      "outputs": [
        {
          "internalType": "bool",
          "name": "active",
          "type": "bool"
        },
        {
          "internalType": "uint256",
          "name": "lastAction",
          "type": "uint256"
        },
        {
          "internalType": "uint256",
          "name": "actionCount",
          "type": "uint256"
        },
        {
          "internalType": "bytes32",
          "name": "stateHash",
          "type": "bytes32"
        }
      ],
      "stateMutability": "view",
      "type": "function"
    },
    {
      "inputs": [
        {
          "internalType": "address",
          "name": "to",
          "type": "address"
        },
        {
          "internalType": "uint256",
          "name": "tokenId",
          "type": "uint256"
        }
      ],
      "name": "approve",
      "outputs": [],
      "stateMutability": "nonpayable",
      "type": "function"
    },
    {
      "inputs": [
        {
          "internalType": "address",
          "name": "owner",
          "type": "address"
        }
      ],
      "name": "balanceOf",
      "outputs": [
        {
          "internalType": "uint256",
          "name": "",
          "type": "uint256"
        }
      ],
      "stateMutability": "view",
      "type": "function"
    },
    {
      "inputs": [
        {
          "internalType": "uint256",
          "name": "tokenId",
          "type": "uint256"
        }
      ],
      "name": "depositFunds",
      "outputs": [],
      "stateMutability": "payable",
      "type": "function"
    },
    {
      "inputs": [
        {
          "internalType": "uint256",
          "name": "tokenId",
          "type": "uint256"
        },
        {
          "internalType": "bytes",
          "name": "actionData",
          "type": "bytes"
        }
      ],
      "name": "executeAction",
      "outputs": [
        {
          "internalType": "bool",
          "name": "",
          "type": "bool"
        }
      ],
      "stateMutability": "nonpayable",
      "type": "function"
    },
    {
      "inputs": [
        {
          "internalType": "uint256",
          "name": "tokenId",
          "type": "uint256"
        }
      ],
      "name": "getAgentCapabilities",
      "outputs": [
        {
          "internalType": "string[]",
          "name": "",
          "type": "string[]"
        }
      ],
      "stateMutability": "view",
      "type": "function"
    },
    {
      "inputs": [
        {
          "internalType": "uint256",
          "name": "tokenId",
          "type": "uint256"
        }
      ],
      "name": "getAgentState",
      "outputs": [
        {
          "components": [
            {
              "internalType": "bool",
              "name": "active",
              "type": "bool"
            },
            {
              "internalType": "uint256",
              "name": "lastAction",
              "type": "uint256"
            },
            {
              "internalType": "uint256",
              "name": "actionCount",
              "type": "uint256"
            },
            {
              "internalType": "bytes32",
              "name": "stateHash",
              "type": "bytes32"
            }
          ],
          "internalType": "struct ChainMindNFA.AgentState",
          "name": "",
          "type": "tuple"
        }
      ],
      "stateMutability": "view",
      "type": "function"
    },
    {
      "inputs": [
        {
          "internalType": "uint256",
          "name": "tokenId",
          "type": "uint256"
        }
      ],
      "name": "getApproved",
      "outputs": [
        {
          "internalType": "address",
          "name": "",
          "type": "address"
        }
      ],
      "stateMutability": "view",
      "type": "function"
    },
    {
      "inputs": [
        {
          "internalType": "address",
          "name": "owner",
          "type": "address"
        },
        {
          "internalType": "address",
          "name": "operator",
          "type": "address"
        }
      ],
      "name": "isApprovedForAll",
      "outputs": [
        {
          "internalType": "bool",
          "name": "",
          "type": "bool"
        }
      ],
      "stateMutability": "view",
      "type": "function"
    },
    {
      "inputs": [
        {
          "internalType": "uint256",
          "name": "tokenId",
          "type": "uint256"
        }
      ],
      "name": "isLearningEnabled",
      "outputs": [
        {
          "internalType": "bool",
          "name": "",
          "type": "bool"
        }
      ],
      "stateMutability": "view",
      "type": "function"
    },
    {
      "inputs": [
        {
          "internalType": "uint256",
          "name": "",
          "type": "uint256"
        }
      ],
      "name": "learningEnabled",
      "outputs": [
        {
          "internalType": "bool",
          "name": "",
          "type": "bool"
        }
      ],
      "stateMutability": "view",
      "type": "function"
    },
    {
      "inputs": [
        {
          "internalType": "address",
          "name": "to",
          "type": "address"
        },
        {
          "internalType": "string",
          "name": "metadataURI",
          "type": "string"
        },
        {
          "internalType": "string[]",
          "name": "capabilities",
          "type": "string[]"
        }
      ],
      "name": "mint",
      "outputs": [
        {
          "internalType": "uint256",
          "name": "",
          "type": "uint256"
        }
      ],
      "stateMutability": "nonpayable",
      "type": "function"
    },
    {
      "inputs": [],
      "name": "name",
      "outputs": [
        {
          "internalType": "string",
          "name": "",
          "type": "string"
        }
      ],
      "stateMutability": "view",
      "type": "function"
    },
    {
      "inputs": [],
      "name": "owner",
      "outputs": [
        {
          "internalType": "address",
          "name": "",
          "type": "address"
        }
      ],
      "stateMutability": "view",
      "type": "function"
    },
    {
      "inputs": [
        {
          "internalType": "uint256",
          "name": "tokenId",
          "type": "uint256"
        }
      ],
      "name": "ownerOf",
      "outputs": [
        {
          "internalType": "address",
          "name": "",
          "type": "address"
        }
      ],
      "stateMutability": "view",
      "type": "function"
    },
    {
      "inputs": [
        {
          "internalType": "uint256",
          "name": "tokenId",
          "type": "uint256"
        },
        {
          "internalType": "bytes",
          "name": "actionData",
          "type": "bytes"
        }
      ],
      "name": "proposeAction",
      "outputs": [
        {
          "internalType": "bytes32",
          "name": "",
          "type": "bytes32"
        }
      ],
      "stateMutability": "nonpayable",
      "type": "function"
    },
    {
      "inputs": [],
      "name": "renounceOwnership",
      "outputs": [],
      "stateMutability": "nonpayable",
      "type": "function"
    },
    {
      "inputs": [
        {
          "internalType": "address",
          "name": "from",
          "type": "address"
        },
        {
          "internalType": "address",
          "name": "to",
          "type": "address"
        },
        {
          "internalType": "uint256",
          "name": "tokenId",
          "type": "uint256"
        }
      ],
      "name": "safeTransferFrom",
      "outputs": [],
      "stateMutability": "nonpayable",
      "type": "function"
    },
    {
      "inputs": [
        {
          "internalType": "address",
          "name": "from",
          "type": "address"
        },
        {
          "internalType": "address",
          "name": "to",
          "type": "address"
        },
        {
          "internalType": "uint256",
          "name": "tokenId",
          "type": "uint256"
        },
        {
          "internalType": "bytes",
          "name": "data",
          "type": "bytes"
        }
      ],
      "name": "safeTransferFrom",
      "outputs": [],
      "stateMutability": "nonpayable",
      "type": "function"
    },
    {
      "inputs": [
        {
          "internalType": "uint256",
          "name": "tokenId",
          "type": "uint256"
        },
        {
          "internalType": "bool",
          "name": "active",
          "type": "bool"
        }
      ],
      "name": "setAgentActive",
      "outputs": [],
      "stateMutability": "nonpayable",
      "type": "function"
    },
    {
      "inputs": [
        {
          "internalType": "address",
          "name": "operator",
          "type": "address"
        },
        {
          "internalType": "bool",
          "name": "approved",
          "type": "bool"
        }
      ],
      "name": "setApprovalForAll",
      "outputs": [],
      "stateMutability": "nonpayable",
      "type": "function"
    },
    {
      "inputs": [
        {
          "internalType": "uint256",
          "name": "tokenId",
          "type": "uint256"
        },
        {
          "internalType": "bool",
          "name": "enabled",
          "type": "bool"
        }
      ],
      "name": "setLearningEnabled",
      "outputs": [],
      "stateMutability": "nonpayable",
      "type": "function"
    },
    {
      "inputs": [
        {
          "internalType": "bytes4",
          "name": "interfaceId",
          "type": "bytes4"
        }
      ],
      "name": "supportsInterface",
      "outputs": [
        {
          "internalType": "bool",
          "name": "",
          "type": "bool"
        }
      ],
      "stateMutability": "view",
      "type": "function"
    },
    {
      "inputs": [],
      "name": "symbol",
      "outputs": [
        {
          "internalType": "string",
          "name": "",
          "type": "string"
        }
      ],
      "stateMutability": "view",
      "type": "function"
    },
    {
      "inputs": [
        {
          "internalType": "uint256",
          "name": "tokenId",
          "type": "uint256"
        }
      ],
      "name": "tokenURI",
      "outputs": [
        {
          "internalType": "string",
          "name": "",
          "type": "string"
        }
      ],
      "stateMutability": "view",
      "type": "function"
    },
    {
      "inputs": [
        {
          "internalType": "address",
          "name": "from",
          "type": "address"
        },
        {
          "internalType": "address",
          "name": "to",
          "type": "address"
        },
        {
          "internalType": "uint256",
          "name": "tokenId",
          "type": "uint256"
        }
      ],
      "name": "transferFrom",
      "outputs": [],
      "stateMutability": "nonpayable",
      "type": "function"
    },
    {
      "inputs": [
        {
          "internalType": "address",
          "name": "newOwner",
          "type": "address"
        }
      ],
      "name": "transferOwnership",
      "outputs": [],
      "stateMutability": "nonpayable",
      "type": "function"
    },
    {
      "inputs": [
        {
          "internalType": "uint256",
          "name": "tokenId",
          "type": "uint256"
        },
        {
          "internalType": "bytes",
          "name": "learningData",
          "type": "bytes"
        }
      ],
      "name": "updateLearning",
      "outputs": [
        {
          "internalType": "bool",
          "name": "",
          "type": "bool"
        }
      ],
      "stateMutability": "nonpayable",
      "type": "function"
    },
    {
      "inputs": [
        {
          "internalType": "uint256",
          "name": "tokenId",
          "type": "uint256"
        },
        {
          "internalType": "uint256",
          "name": "amount",
          "type": "uint256"
        }
      ],
      "name": "withdrawFunds",
      "outputs": [],
      "stateMutability": "nonpayable",
      "type": "function"
    },
    {
      "stateMutability": "payable",
      "type": "receive"
    }
  ],
  "bytecode": "0x60806040523480156200001157600080fd5b50336040518060400160405280600f81526020016e10da185a5b935a5b99081059d95b9d608a1b81525060405180604001604052806004815260200163434d584160e01b8152508160009081620000699190620001b3565b506001620000788282620001b3565b5050506001600160a01b038116620000aa57604051631e4fbdf760e01b81526000600482015260240160405180910390fd5b620000b581620000bc565b506200027f565b600780546001600160a01b038381166001600160a01b0319831681179093556040519116919082907f8be0079c531659141344cd1fd0a4f28419497f9722a3daafe3b4186f6b6457e090600090a35050565b634e487b7160e01b600052604160045260246000fd5b600181811c908216806200013957607f821691505b6020821081036200015a57634e487b7160e01b600052602260045260246000fd5b50919050565b601f821115620001ae57600081815260208120601f850160051c81016020861015620001895750805b601f850160051c820191505b81811015620001aa5782815560010162000195565b5050505b505050565b81516001600160401b03811115620001cf57620001cf6200010e565b620001e781620001e0845462000124565b8462000160565b602080601f8311600181146200021f5760008415620002065750858301515b600019600386901b1c1916600185901b178555620001aa565b600085815260208120601f198616915b8281101562000250578886015182559484019460019091019084016200022f565b50858210156200026f5787850151600019600388901b60f8161c191681555b5050505050600190811b01905550565b612317806200028f6000396000f3fe6080604052600436106101d15760003560e01c806363aba2f5116100f7578063a22cb46511610095578063d34057d011610064578063d34057d0146105ee578063e52531051461060e578063e985e9c51461062e578063f2fde38b1461064e57600080fd5b8063a22cb4651461056e578063b1aa3d451461058e578063b88d4fde146105ae578063c87b56dd146105ce57600080fd5b806383efdc99116100d157806383efdc99146104fb5780638da5cb5b1461051b57806395d89b41146105395780639c52dd721461054e57600080fd5b806363aba2f5146104a657806370a08231146104c6578063715018a6146104e657600080fd5b806323b872dd1161016f5780634406c9e61161013e5780634406c9e6146103fe57806355150c161461042b5780635e0c03921461044b5780636352211e1461048657600080fd5b806323b872dd1461037b5780632e5aa3e51461039b5780633b76594d146103cb57806342842e0e146103de57600080fd5b8063095ea7b3116101ab578063095ea7b31461026c5780630d5c47991461028e5780631e4def83146102f65780631e8937591461034b57600080fd5b806301ffc9a7146101dd57806306fdde0314610212578063081812fc1461023457600080fd5b366101d857005b600080fd5b3480156101e957600080fd5b506101fd6101f8366004611b10565b61066e565b60405190151581526020015b60405180910390f35b34801561021e57600080fd5b5061022761067f565b6040516102099190611b7d565b34801561024057600080fd5b5061025461024f366004611b90565b610711565b6040516001600160a01b039091168152602001610209565b34801561027857600080fd5b5061028c610287366004611bc5565b61073a565b005b34801561029a57600080fd5b506102d46102a9366004611b90565b600960205260009081526040902080546001820154600283015460039093015460ff90921692909184565b6040805194151585526020850193909352918301526060820152608001610209565b34801561030257600080fd5b50610316610311366004611b90565b610749565b604051610209919081511515815260208083015190820152604080830151908201526060918201519181019190915260800190565b34801561035757600080fd5b506101fd610366366004611b90565b6000908152600b602052604090205460ff1690565b34801561038757600080fd5b5061028c610396366004611bef565b6107f1565b3480156103a757600080fd5b506101fd6103b6366004611b90565b600b6020526000908152604090205460ff1681565b61028c6103d9366004611b90565b61087c565b3480156103ea57600080fd5b5061028c6103f9366004611bef565b61090b565b34801561040a57600080fd5b5061041e610419366004611b90565b61092b565b6040516102099190611c2b565b34801561043757600080fd5b506101fd610446366004611c8d565b610a42565b34801561045757600080fd5b50610478610466366004611b90565b600c6020526000908152604090205481565b604051908152602001610209565b34801561049257600080fd5b506102546104a1366004611b90565b610bbc565b3480156104b257600080fd5b506104786104c1366004611dc8565b610bc7565b3480156104d257600080fd5b506104786104e1366004611ec2565b610ca3565b3480156104f257600080fd5b5061028c610ceb565b34801561050757600080fd5b5061028c610516366004611eed565b610cff565b34801561052757600080fd5b506007546001600160a01b0316610254565b34801561054557600080fd5b50610227610d4f565b34801561055a57600080fd5b5061028c610569366004611eed565b610d5e565b34801561057a57600080fd5b5061028c610589366004611f19565b610dae565b34801561059a57600080fd5b506104786105a9366004611c8d565b610db9565b3480156105ba57600080fd5b5061028c6105c9366004611f43565b610e21565b3480156105da57600080fd5b506102276105e9366004611b90565b610e39565b3480156105fa57600080fd5b506101fd610609366004611c8d565b610e44565b34801561061a57600080fd5b5061028c610629366004611fbf565b610f1d565b34801561063a57600080fd5b506101fd610649366004611fe1565b61102f565b34801561065a57600080fd5b5061028c610669366004611ec2565b61105d565b60006106798261109b565b92915050565b60606000805461068e9061200b565b80601f01602080910402602001604051908101604052809291908181526020018280546106ba9061200b565b80156107075780601f106106dc57610100808354040283529160200191610707565b820191906000526020600020905b8154815290600101906020018083116106ea57829003601f168201915b5050505050905090565b600061071c826110c0565b506000828152600460205260409020546001600160a01b0316610679565b6107458282336110f9565b5050565b6040805160808101825260008082526020808301829052828401829052606083018290528482526002905291909120546001600160a01b03166107a75760405162461bcd60e51b815260040161079e90612045565b60405180910390fd5b506000908152600960209081526040918290208251608081018452815460ff1615158152600182015492810192909252600281015492820192909252600390910154606082015290565b6001600160a01b03821661081b57604051633250574960e11b81526000600482015260240161079e565b6000610828838333611106565b9050836001600160a01b0316816001600160a01b031614610876576040516364283d7b60e01b81526001600160a01b038086166004830152602482018490528216604482015260640161079e565b50505050565b6000818152600260205260409020546001600160a01b03166108b05760405162461bcd60e51b815260040161079e90612045565b6000818152600c6020526040812080543492906108ce908490612089565b909155505060405134815281907f26679fa1f3868c950e9362f1106cf73f3318de0280e0411a3c68e4b463eadd4f9060200160405180910390a250565b61092683838360405180602001604052806000815250610e21565b505050565b6000818152600260205260409020546060906001600160a01b03166109625760405162461bcd60e51b815260040161079e90612045565b6000828152600a6020908152604080832080548251818502810185019093528083529193909284015b82821015610a375783829060005260206000200180546109aa9061200b565b80601f01602080910402602001604051908101604052809291908181526020018280546109d69061200b565b8015610a235780601f106109f857610100808354040283529160200191610a23565b820191906000526020600020905b815481529060010190602001808311610a0657829003601f168201915b50505050508152602001906001019061098b565b505050509050919050565b600033610a4e85610bbc565b6001600160a01b031614610a745760405162461bcd60e51b815260040161079e9061209c565b60008481526009602052604090205460ff16610ac55760405162461bcd60e51b815260206004820152601060248201526f4167656e74206e6f742061637469766560801b604482015260640161079e565b60008481526009602052604081204260018201556002810180549192610aea836120bf565b919050555080600301548484604051602001610b08939291906120d8565b604051602081830303815290604052805190602001208160030181905550847fe40386cd4d64e3a22b1f6c812d539ca67061827672378a6bf62a026214ce04fb8585604051610b589291906120f2565b6040805191829003822082524260208301520160405180910390a2847f3060356fe01e6782d366a741b8a2f65e53c64fefa69c21cf85ad79a846fd472e8260030154604051610ba991815260200190565b60405180910390a2506001949350505050565b6000610679826110c0565b6000610bd16111ff565b6008805460009182610be2836120bf565b919050559050610bf2858261122c565b610bfc8185611246565b6040518060800160405280600115158152602001428152602001600081526020018542604051602001610c30929190612102565b60408051808303601f1901815291815281516020928301209092526000848152600982528281208451815460ff1916901515178155848301516001820155848401516002820155606090940151600390940193909355600a815291208451610c9a92860190611a3d565b50949350505050565b60006001600160a01b038216610ccf576040516322718ad960e21b81526000600482015260240161079e565b506001600160a01b031660009081526003602052604090205490565b610cf36111ff565b610cfd6000611296565b565b33610d0983610bbc565b6001600160a01b031614610d2f5760405162461bcd60e51b815260040161079e9061209c565b600091825260096020526040909120805460ff1916911515919091179055565b60606001805461068e9061200b565b33610d6883610bbc565b6001600160a01b031614610d8e5760405162461bcd60e51b815260040161079e9061209c565b6000918252600b6020526040909120805460ff1916911515919091179055565b6107453383836112e8565b600033610dc585610bbc565b6001600160a01b031614610deb5760405162461bcd60e51b815260040161079e9061209c565b83838342604051602001610e029493929190612124565b6040516020818303038152906040528051906020012090509392505050565b610e2c8484846107f1565b6108763385858585611387565b6060610679826114b2565b600033610e5085610bbc565b6001600160a01b031614610e765760405162461bcd60e51b815260040161079e9061209c565b6000848152600b602052604090205460ff16610ecb5760405162461bcd60e51b81526020600482015260146024820152731319585c9b9a5b99c81b9bdd08195b98589b195960621b604482015260640161079e565b837febf6f4ea7308df6bd99125cefb1df52257094953a4a55dfab4180870d10f14b48484604051610efd9291906120f2565b604051908190038120815260200160405180910390a25060019392505050565b33610f2783610bbc565b6001600160a01b031614610f4d5760405162461bcd60e51b815260040161079e9061209c565b6000828152600c6020526040902054811115610fa05760405162461bcd60e51b8152602060048201526012602482015271496e73756666696369656e742066756e647360701b604482015260640161079e565b6000828152600c602052604081208054839290610fbe90849061213f565b9091555050604051339082156108fc029083906000818181858888f19350505050158015610ff0573d6000803e3d6000fd5b50817fd66662c0ded9e58fd31d5e44944bcfd07ffc15e6927ecc1382e7941cb7bd24c48260405161102391815260200190565b60405180910390a25050565b6001600160a01b03918216600090815260056020908152604080832093909416825291909152205460ff1690565b6110656111ff565b6001600160a01b03811661108f57604051631e4fbdf760e01b81526000600482015260240161079e565b61109881611296565b50565b60006001600160e01b03198216632483248360e11b14806106795750610679826115c3565b6000818152600260205260408120546001600160a01b03168061067957604051637e27328960e01b81526004810184905260240161079e565b6109268383836001611613565b6000828152600260205260408120546001600160a01b039081169083161561113357611133818486611719565b6001600160a01b0381161561117157611150600085600080611613565b6001600160a01b038116600090815260036020526040902080546000190190555b6001600160a01b038516156111a0576001600160a01b0385166000908152600360205260409020805460010190555b60008481526002602052604080822080546001600160a01b0319166001600160a01b0389811691821790925591518793918516917fddf252ad1be2c89b69c2b068fc378daa952ba7f163c4a11628f55a4df523b3ef91a4949350505050565b6007546001600160a01b03163314610cfd5760405163118cdaa760e01b815233600482015260240161079e565b61074582826040518060200160405280600081525061177d565b600082815260066020526040902061125e8282612198565b506040518281527ff8e1a15aba9398e019f0b49df1a4fde98ee17ae345cb5f6b5e2c27f5033e8ce79060200160405180910390a15050565b600780546001600160a01b038381166001600160a01b0319831681179093556040519116919082907f8be0079c531659141344cd1fd0a4f28419497f9722a3daafe3b4186f6b6457e090600090a35050565b6001600160a01b03821661131a57604051630b61174360e31b81526001600160a01b038316600482015260240161079e565b6001600160a01b03838116600081815260056020908152604080832094871680845294825291829020805460ff191686151590811790915591519182527f17307eab39ab6107e8899845ad3d59bd9653f200f220920489ca2b5937696c31910160405180910390a3505050565b6001600160a01b0383163b156114ab57604051630a85bd0160e11b81526001600160a01b0384169063150b7a02906113c9908890889087908790600401612258565b6020604051808303816000875af1925050508015611404575060408051601f3d908101601f1916820190925261140191810190612295565b60015b61146d573d808015611432576040519150601f19603f3d011682016040523d82523d6000602084013e611437565b606091505b50805160000361146557604051633250574960e11b81526001600160a01b038516600482015260240161079e565b805160208201fd5b6001600160e01b03198116630a85bd0160e11b146114a957604051633250574960e11b81526001600160a01b038516600482015260240161079e565b505b5050505050565b60606114bd826110c0565b50600082815260066020526040812080546114d79061200b565b80601f01602080910402602001604051908101604052809291908181526020018280546115039061200b565b80156115505780601f1061152557610100808354040283529160200191611550565b820191906000526020600020905b81548152906001019060200180831161153357829003601f168201915b50505050509050600061156e60408051602081019091526000815290565b90508051600003611580575092915050565b8151156115b257808260405160200161159a9291906122b2565b60405160208183030381529060405292505050919050565b6115bb84611795565b949350505050565b60006001600160e01b031982166380ac58cd60e01b14806115f457506001600160e01b03198216635b5e139f60e01b145b8061067957506301ffc9a760e01b6001600160e01b0319831614610679565b808061162757506001600160a01b03821615155b156116e9576000611637846110c0565b90506001600160a01b038316158015906116635750826001600160a01b0316816001600160a01b031614155b80156116765750611674818461102f565b155b1561169f5760405163a9fbf51f60e01b81526001600160a01b038416600482015260240161079e565b81156116e75783856001600160a01b0316826001600160a01b03167f8c5be1e5ebec7d5bd14f71427d1e84f3dd0314c0f7b2291e5b200ac8c7c3b92560405160405180910390a45b505b5050600090815260046020526040902080546001600160a01b0319166001600160a01b0392909216919091179055565b61172483838361180a565b610926576001600160a01b03831661175257604051637e27328960e01b81526004810182905260240161079e565b60405163177e802f60e01b81526001600160a01b03831660048201526024810182905260440161079e565b611787838361186d565b610926336000858585611387565b60606117a0826110c0565b5060006117b860408051602081019091526000815290565b905060008151116117d85760405180602001604052806000815250611803565b806117e2846118d2565b6040516020016117f39291906122b2565b6040516020818303038152906040525b9392505050565b60006001600160a01b038316158015906115bb5750826001600160a01b0316846001600160a01b031614806118445750611844848461102f565b806115bb5750506000908152600460205260409020546001600160a01b03908116911614919050565b6001600160a01b03821661189757604051633250574960e11b81526000600482015260240161079e565b60006118a583836000611106565b90506001600160a01b03811615610926576040516339e3563760e11b81526000600482015260240161079e565b606060006118df83611965565b600101905060008167ffffffffffffffff8111156118ff576118ff611d09565b6040519080825280601f01601f191660200182016040528015611929576020820181803683370190505b5090508181016020015b600019016f181899199a1a9b1b9c1cb0b131b232b360811b600a86061a8153600a850494508461193357509392505050565b60008072184f03e93ff9f4daa797ed6e38ed64bf6a1f0160401b83106119a45772184f03e93ff9f4daa797ed6e38ed64bf6a1f0160401b830492506040015b6d04ee2d6d415b85acef810000000083106119d0576d04ee2d6d415b85acef8100000000830492506020015b662386f26fc1000083106119ee57662386f26fc10000830492506010015b6305f5e1008310611a06576305f5e100830492506008015b6127108310611a1a57612710830492506004015b60648310611a2c576064830492506002015b600a83106106795760010192915050565b828054828255906000526020600020908101928215611a83579160200282015b82811115611a835782518290611a739082612198565b5091602001919060010190611a5d565b50611a8f929150611a93565b5090565b80821115611a8f576000611aa78282611ab0565b50600101611a93565b508054611abc9061200b565b6000825580601f10611acc575050565b601f01602090049060005260206000209081019061109891905b80821115611a8f5760008155600101611ae6565b6001600160e01b03198116811461109857600080fd5b600060208284031215611b2257600080fd5b813561180381611afa565b60005b83811015611b48578181015183820152602001611b30565b50506000910152565b60008151808452611b69816020860160208601611b2d565b601f01601f19169290920160200192915050565b6020815260006118036020830184611b51565b600060208284031215611ba257600080fd5b5035919050565b80356001600160a01b0381168114611bc057600080fd5b919050565b60008060408385031215611bd857600080fd5b611be183611ba9565b946020939093013593505050565b600080600060608486031215611c0457600080fd5b611c0d84611ba9565b9250611c1b60208501611ba9565b9150604084013590509250925092565b6000602080830181845280855180835260408601915060408160051b870101925083870160005b82811015611c8057603f19888603018452611c6e858351611b51565b94509285019290850190600101611c52565b5092979650505050505050565b600080600060408486031215611ca257600080fd5b83359250602084013567ffffffffffffffff80821115611cc157600080fd5b818601915086601f830112611cd557600080fd5b813581811115611ce457600080fd5b876020828501011115611cf657600080fd5b6020830194508093505050509250925092565b634e487b7160e01b600052604160045260246000fd5b604051601f8201601f1916810167ffffffffffffffff81118282101715611d4857611d48611d09565b604052919050565b600067ffffffffffffffff831115611d6a57611d6a611d09565b611d7d601f8401601f1916602001611d1f565b9050828152838383011115611d9157600080fd5b828260208301376000602084830101529392505050565b600082601f830112611db957600080fd5b61180383833560208501611d50565b600080600060608486031215611ddd57600080fd5b611de684611ba9565b925060208085013567ffffffffffffffff80821115611e0457600080fd5b611e1088838901611da8565b94506040870135915080821115611e2657600080fd5b818701915087601f830112611e3a57600080fd5b813581811115611e4c57611e4c611d09565b8060051b611e5b858201611d1f565b918252838101850191858101908b841115611e7557600080fd5b86860192505b83831015611eb157823585811115611e935760008081fd5b611ea18d89838a0101611da8565b8352509186019190860190611e7b565b809750505050505050509250925092565b600060208284031215611ed457600080fd5b61180382611ba9565b80358015158114611bc057600080fd5b60008060408385031215611f0057600080fd5b82359150611f1060208401611edd565b90509250929050565b60008060408385031215611f2c57600080fd5b611f3583611ba9565b9150611f1060208401611edd565b60008060008060808587031215611f5957600080fd5b611f6285611ba9565b9350611f7060208601611ba9565b925060408501359150606085013567ffffffffffffffff811115611f9357600080fd5b8501601f81018713611fa457600080fd5b611fb387823560208401611d50565b91505092959194509250565b60008060408385031215611fd257600080fd5b50508035926020909101359150565b60008060408385031215611ff457600080fd5b611ffd83611ba9565b9150611f1060208401611ba9565b600181811c9082168061201f57607f821691505b60208210810361203f57634e487b7160e01b600052602260045260246000fd5b50919050565b602080825260149082015273151bdad95b88191bd95cc81b9bdd08195e1a5cdd60621b604082015260600190565b634e487b7160e01b600052601160045260246000fd5b8082018082111561067957610679612073565b6020808252600990820152682737ba1037bbb732b960b91b604082015260600190565b6000600182016120d1576120d1612073565b5060010190565b838152818360208301376000910160200190815292915050565b8183823760009101908152919050565b60008351612114818460208801611b2d565b9190910191825250602001919050565b84815282846020830137602092019182015260400192915050565b8181038181111561067957610679612073565b601f82111561092657600081815260208120601f850160051c810160208610156121795750805b601f850160051c820191505b818110156114a957828155600101612185565b815167ffffffffffffffff8111156121b2576121b2611d09565b6121c6816121c0845461200b565b84612152565b602080601f8311600181146121fb57600084156121e35750858301515b600019600386901b1c1916600185901b1785556114a9565b600085815260208120601f198616915b8281101561222a5788860151825594840194600190910190840161220b565b50858210156122485787850151600019600388901b60f8161c191681555b5050505050600190811b01905550565b6001600160a01b038581168252841660208201526040810183905260806060820181905260009061228b90830184611b51565b9695505050505050565b6000602082840312156122a757600080fd5b815161180381611afa565b600083516122c4818460208801611b2d565b8351908301906122d8818360208801611b2d565b0194935050505056fea2646970667358221220663d4327c7d438a0be72b1e1d61b7ec28345caaa03b344912c88da73ede2c23a64736f6c63430008140033",
  "linkReferences": {},
  "deployedLinkReferences": {}
}